{
  "contracts/Vether.sol": {
    "Vether": {
      "abi": [
        {
          "inputs": [],
          "stateMutability": "nonpayable",
          "type": "constructor"
        },
        {
          "anonymous": false,
          "inputs": [
            {
              "indexed": true,
              "internalType": "address",
              "name": "owner",
              "type": "address"
            },
            {
              "indexed": true,
              "internalType": "address",
              "name": "spender",
              "type": "address"
            },
            {
              "indexed": false,
              "internalType": "uint256",
              "name": "value",
              "type": "uint256"
            }
          ],
          "name": "Approval",
          "type": "event"
        },
        {
          "anonymous": false,
          "inputs": [
            {
              "indexed": true,
              "internalType": "address",
              "name": "from",
              "type": "address"
            },
            {
              "indexed": true,
              "internalType": "address",
              "name": "to",
              "type": "address"
            },
            {
              "indexed": false,
              "internalType": "uint256",
              "name": "value",
              "type": "uint256"
            }
          ],
          "name": "Transfer",
          "type": "event"
        },
        {
          "inputs": [
            {
              "internalType": "address",
              "name": "excluded",
              "type": "address"
            }
          ],
          "name": "addExcluded",
          "outputs": [],
          "stateMutability": "nonpayable",
          "type": "function"
        },
        {
          "inputs": [
            {
              "internalType": "address",
              "name": "owner",
              "type": "address"
            },
            {
              "internalType": "address",
              "name": "spender",
              "type": "address"
            }
          ],
          "name": "allowance",
          "outputs": [
            {
              "internalType": "uint256",
              "name": "",
              "type": "uint256"
            }
          ],
          "stateMutability": "view",
          "type": "function"
        },
        {
          "inputs": [
            {
              "internalType": "address",
              "name": "spender",
              "type": "address"
            },
            {
              "internalType": "uint256",
              "name": "amount",
              "type": "uint256"
            }
          ],
          "name": "approve",
          "outputs": [
            {
              "internalType": "bool",
              "name": "",
              "type": "bool"
            }
          ],
          "stateMutability": "nonpayable",
          "type": "function"
        },
        {
          "inputs": [
            {
              "internalType": "address",
              "name": "account",
              "type": "address"
            }
          ],
          "name": "balanceOf",
          "outputs": [
            {
              "internalType": "uint256",
              "name": "",
              "type": "uint256"
            }
          ],
          "stateMutability": "view",
          "type": "function"
        },
        {
          "inputs": [],
          "name": "decimals",
          "outputs": [
            {
              "internalType": "uint8",
              "name": "",
              "type": "uint8"
            }
          ],
          "stateMutability": "view",
          "type": "function"
        },
        {
          "inputs": [
            {
              "internalType": "address",
              "name": "spender",
              "type": "address"
            },
            {
              "internalType": "uint256",
              "name": "subtractedValue",
              "type": "uint256"
            }
          ],
          "name": "decreaseAllowance",
          "outputs": [
            {
              "internalType": "bool",
              "name": "",
              "type": "bool"
            }
          ],
          "stateMutability": "nonpayable",
          "type": "function"
        },
        {
          "inputs": [
            {
              "internalType": "address",
              "name": "spender",
              "type": "address"
            },
            {
              "internalType": "uint256",
              "name": "addedValue",
              "type": "uint256"
            }
          ],
          "name": "increaseAllowance",
          "outputs": [
            {
              "internalType": "bool",
              "name": "",
              "type": "bool"
            }
          ],
          "stateMutability": "nonpayable",
          "type": "function"
        },
        {
          "inputs": [
            {
              "internalType": "address",
              "name": "",
              "type": "address"
            }
          ],
          "name": "mapAddress_Excluded",
          "outputs": [
            {
              "internalType": "bool",
              "name": "",
              "type": "bool"
            }
          ],
          "stateMutability": "view",
          "type": "function"
        },
        {
          "inputs": [],
          "name": "name",
          "outputs": [
            {
              "internalType": "string",
              "name": "",
              "type": "string"
            }
          ],
          "stateMutability": "view",
          "type": "function"
        },
        {
          "inputs": [],
          "name": "symbol",
          "outputs": [
            {
              "internalType": "string",
              "name": "",
              "type": "string"
            }
          ],
          "stateMutability": "view",
          "type": "function"
        },
        {
          "inputs": [],
          "name": "totalFees",
          "outputs": [
            {
              "internalType": "uint256",
              "name": "",
              "type": "uint256"
            }
          ],
          "stateMutability": "view",
          "type": "function"
        },
        {
          "inputs": [],
          "name": "totalSupply",
          "outputs": [
            {
              "internalType": "uint256",
              "name": "",
              "type": "uint256"
            }
          ],
          "stateMutability": "view",
          "type": "function"
        },
        {
          "inputs": [
            {
              "internalType": "address",
              "name": "recipient",
              "type": "address"
            },
            {
              "internalType": "uint256",
              "name": "amount",
              "type": "uint256"
            }
          ],
          "name": "transfer",
          "outputs": [
            {
              "internalType": "bool",
              "name": "",
              "type": "bool"
            }
          ],
          "stateMutability": "nonpayable",
          "type": "function"
        },
        {
          "inputs": [
            {
              "internalType": "address",
              "name": "sender",
              "type": "address"
            },
            {
              "internalType": "address",
              "name": "recipient",
              "type": "address"
            },
            {
              "internalType": "uint256",
              "name": "amount",
              "type": "uint256"
            }
          ],
          "name": "transferFrom",
          "outputs": [
            {
              "internalType": "bool",
              "name": "",
              "type": "bool"
            }
          ],
          "stateMutability": "nonpayable",
          "type": "function"
        }
      ],
      "evm": {
        "bytecode": {
          "linkReferences": {},
          "object": "60806040523480156200001157600080fd5b50620000206012600a620000e5565b6200002f90620f4240620001dd565b33600081815260026020526040812092909255907fddf252ad1be2c89b69c2b068fc378daa952ba7f163c4a11628f55a4df523b3ef620000726012600a620000e5565b6200008190620f4240620001dd565b60405190815260200160405180910390a362000215565b80825b6001808611620000ac5750620000dc565b818704821115620000c157620000c1620001ff565b80861615620000cf57918102915b9490941c9380026200009b565b94509492505050565b6000620000f960001960ff85168462000100565b9392505050565b6000826200011157506001620000f9565b816200012057506000620000f9565b8160018114620001395760028114620001445762000178565b6001915050620000f9565b60ff841115620001585762000158620001ff565b6001841b915084821115620001715762000171620001ff565b50620000f9565b5060208310610133831016604e8410600b8410161715620001b0575081810a83811115620001aa57620001aa620001ff565b620000f9565b620001bf848484600162000098565b808604821115620001d457620001d4620001ff565b02949350505050565b6000816000190483118215151615620001fa57620001fa620001ff565b500290565b634e487b7160e01b600052601160045260246000fd5b610a7880620002256000396000f3fe608060405234801561001057600080fd5b50600436106100ea5760003560e01c80634f8eddb21161008c578063a457c2d711610066578063a457c2d714610205578063a9059cbb14610218578063a93215731461022b578063dd62ed3e14610262576100ea565b80634f8eddb2146101ac57806370a08231146101cf57806395d89b41146101e2576100ea565b806318160ddd116100c857806318160ddd1461016457806323b872dd1461016c578063313ce5671461017f5780633950935114610199576100ea565b806306fdde03146100ef578063095ea7b31461012a57806313114a9d1461014d575b600080fd5b610114604051806040016040528060068152602001652b32ba3432b960d11b81525081565b6040516101219190610854565b60405180910390f35b61013d61013836600461082b565b61029b565b6040519015158152602001610121565b61015660005481565b604051908152602001610121565b6101566102b1565b61013d61017a3660046107f0565b6102cd565b610187601281565b60405160ff9091168152602001610121565b61013d6101a736600461082b565b61034d565b61013d6101ba3660046107a4565b60016020526000908152604090205460ff1681565b6101566101dd3660046107a4565b610384565b610114604051806040016040528060048152602001630ac8aa8960e31b81525081565b61013d61021336600461082b565b6103a3565b61013d61022636600461082b565b6103da565b6102606102393660046107a4565b6001600160a01b03166000908152600160208190526040909120805460ff19169091179055565b005b6101566102703660046107be565b6001600160a01b03918216600090815260036020908152604080832093909416825291909152205490565b60006102a83384846103e7565b50600192915050565b6102bd6012600a610925565b6102ca90620f42406109f6565b81565b60006102da848484610513565b6001600160a01b03841660009081526003602090815260408083203384529091529020546000191115610342576001600160a01b03841660009081526003602090815260408083203380855292529091205461034291869161033d908690610a15565b6103e7565b5060015b9392505050565b3360008181526003602090815260408083206001600160a01b038716845290915281205490916102a891859061033d9086906108a7565b6001600160a01b0381166000908152600260205260409020545b919050565b3360008181526003602090815260408083206001600160a01b038716845290915281205490916102a891859061033d908690610a15565b60006102a8338484610513565b6001600160a01b0383166104505760405162461bcd60e51b815260206004820152602560248201527f6945524332303a20617070726f76652066726f6d20746865207a65726f206164604482015264647265737360d81b60648201526084015b60405180910390fd5b6001600160a01b0382166104b25760405162461bcd60e51b815260206004820152602360248201527f6945524332303a20617070726f766520746f20746865207a65726f206164647260448201526265737360e81b6064820152608401610447565b6001600160a01b0383811660008181526003602090815260408083209487168084529482529182902085905590518481527f8c5be1e5ebec7d5bd14f71427d1e84f3dd0314c0f7b2291e5b200ac8c7c3b925910160405180910390a3505050565b6001600160a01b03831660009081526002602052604090205481111561057b5760405162461bcd60e51b815260206004820152601f60248201527f4d757374206e6f742073656e64206d6f7265207468616e2062616c616e6365006044820152606401610447565b6001600160a01b03821660009081526002602052604090205461059e82826108a7565b10156105df5760405162461bcd60e51b815260206004820152601060248201526f42616c616e6365206f766572666c6f7760801b6044820152606401610447565b6001600160a01b03831660009081526002602052604081208054839290610607908490610a15565b909155506000905061061a84848461072d565b90506106268183610a15565b6001600160a01b0384166000908152600260205260408120805490919061064e9084906108a7565b909155505080156106965730600090815260026020526040812080548392906106789084906108a7565b925050819055508060008082825461069091906108a7565b90915550505b6001600160a01b038084169085167fddf252ad1be2c89b69c2b068fc378daa952ba7f163c4a11628f55a4df523b3ef6106cf8486610a15565b60405190815260200160405180910390a380156107275760405181815230906001600160a01b038616907fddf252ad1be2c89b69c2b068fc378daa952ba7f163c4a11628f55a4df523b3ef9060200160405180910390a35b50505050565b6001600160a01b03831660009081526001602052604081205460ff168061076c57506001600160a01b03831660009081526001602052604090205460ff165b1561077957506000610346565b6107856103e8836108bf565b949350505050565b80356001600160a01b038116811461039e57600080fd5b6000602082840312156107b5578081fd5b6103468261078d565b600080604083850312156107d0578081fd5b6107d98361078d565b91506107e76020840161078d565b90509250929050565b600080600060608486031215610804578081fd5b61080d8461078d565b925061081b6020850161078d565b9150604084013590509250925092565b6000806040838503121561083d578182fd5b6108468361078d565b946020939093013593505050565b6000602080835283518082850152825b8181101561088057858101830151858201604001528201610864565b818111156108915783604083870101525b50601f01601f1916929092016040019392505050565b600082198211156108ba576108ba610a2c565b500190565b6000826108da57634e487b7160e01b81526012600452602481fd5b500490565b80825b60018086116108f1575061091c565b81870482111561090357610903610a2c565b8086161561091057918102915b9490941c9380026108e2565b94509492505050565b600061034660001960ff85168460008261094157506001610346565b8161094e57506000610346565b8160018114610964576002811461096e5761099b565b6001915050610346565b60ff84111561097f5761097f610a2c565b6001841b91508482111561099557610995610a2c565b50610346565b5060208310610133831016604e8410600b84101617156109ce575081810a838111156109c9576109c9610a2c565b610346565b6109db84848460016108df565b8086048211156109ed576109ed610a2c565b02949350505050565b6000816000190483118215151615610a1057610a10610a2c565b500290565b600082821015610a2757610a27610a2c565b500390565b634e487b7160e01b600052601160045260246000fdfea2646970667358221220396a852cb8158d5ef48493cb0a8549c60676157cf118ad8ba798990e00aa6c7c64736f6c63430008030033",
          "opcodes": "PUSH1 0x80 PUSH1 0x40 MSTORE CALLVALUE DUP1 ISZERO PUSH3 0x11 JUMPI PUSH1 0x0 DUP1 REVERT JUMPDEST POP PUSH3 0x20 PUSH1 0x12 PUSH1 0xA PUSH3 0xE5 JUMP JUMPDEST PUSH3 0x2F SWAP1 PUSH3 0xF4240 PUSH3 0x1DD JUMP JUMPDEST CALLER PUSH1 0x0 DUP2 DUP2 MSTORE PUSH1 0x2 PUSH1 0x20 MSTORE PUSH1 0x40 DUP2 KECCAK256 SWAP3 SWAP1 SWAP3 SSTORE SWAP1 PUSH32 0xDDF252AD1BE2C89B69C2B068FC378DAA952BA7F163C4A11628F55A4DF523B3EF PUSH3 0x72 PUSH1 0x12 PUSH1 0xA PUSH3 0xE5 JUMP JUMPDEST PUSH3 0x81 SWAP1 PUSH3 0xF4240 PUSH3 0x1DD JUMP JUMPDEST PUSH1 0x40 MLOAD SWAP1 DUP2 MSTORE PUSH1 0x20 ADD PUSH1 0x40 MLOAD DUP1 SWAP2 SUB SWAP1 LOG3 PUSH3 0x215 JUMP JUMPDEST DUP1 DUP3 JUMPDEST PUSH1 0x1 DUP1 DUP7 GT PUSH3 0xAC JUMPI POP PUSH3 0xDC JUMP JUMPDEST DUP2 DUP8 DIV DUP3 GT ISZERO PUSH3 0xC1 JUMPI PUSH3 0xC1 PUSH3 0x1FF JUMP JUMPDEST DUP1 DUP7 AND ISZERO PUSH3 0xCF JUMPI SWAP2 DUP2 MUL SWAP2 JUMPDEST SWAP5 SWAP1 SWAP5 SHR SWAP4 DUP1 MUL PUSH3 0x9B JUMP JUMPDEST SWAP5 POP SWAP5 SWAP3 POP POP POP JUMP JUMPDEST PUSH1 0x0 PUSH3 0xF9 PUSH1 0x0 NOT PUSH1 0xFF DUP6 AND DUP5 PUSH3 0x100 JUMP JUMPDEST SWAP4 SWAP3 POP POP POP JUMP JUMPDEST PUSH1 0x0 DUP3 PUSH3 0x111 JUMPI POP PUSH1 0x1 PUSH3 0xF9 JUMP JUMPDEST DUP2 PUSH3 0x120 JUMPI POP PUSH1 0x0 PUSH3 0xF9 JUMP JUMPDEST DUP2 PUSH1 0x1 DUP2 EQ PUSH3 0x139 JUMPI PUSH1 0x2 DUP2 EQ PUSH3 0x144 JUMPI PUSH3 0x178 JUMP JUMPDEST PUSH1 0x1 SWAP2 POP POP PUSH3 0xF9 JUMP JUMPDEST PUSH1 0xFF DUP5 GT ISZERO PUSH3 0x158 JUMPI PUSH3 0x158 PUSH3 0x1FF JUMP JUMPDEST PUSH1 0x1 DUP5 SHL SWAP2 POP DUP5 DUP3 GT ISZERO PUSH3 0x171 JUMPI PUSH3 0x171 PUSH3 0x1FF JUMP JUMPDEST POP PUSH3 0xF9 JUMP JUMPDEST POP PUSH1 0x20 DUP4 LT PUSH2 0x133 DUP4 LT AND PUSH1 0x4E DUP5 LT PUSH1 0xB DUP5 LT AND OR ISZERO PUSH3 0x1B0 JUMPI POP DUP2 DUP2 EXP DUP4 DUP2 GT ISZERO PUSH3 0x1AA JUMPI PUSH3 0x1AA PUSH3 0x1FF JUMP JUMPDEST PUSH3 0xF9 JUMP JUMPDEST PUSH3 0x1BF DUP5 DUP5 DUP5 PUSH1 0x1 PUSH3 0x98 JUMP JUMPDEST DUP1 DUP7 DIV DUP3 GT ISZERO PUSH3 0x1D4 JUMPI PUSH3 0x1D4 PUSH3 0x1FF JUMP JUMPDEST MUL SWAP5 SWAP4 POP POP POP POP JUMP JUMPDEST PUSH1 0x0 DUP2 PUSH1 0x0 NOT DIV DUP4 GT DUP3 ISZERO ISZERO AND ISZERO PUSH3 0x1FA JUMPI PUSH3 0x1FA PUSH3 0x1FF JUMP JUMPDEST POP MUL SWAP1 JUMP JUMPDEST PUSH4 0x4E487B71 PUSH1 0xE0 SHL PUSH1 0x0 MSTORE PUSH1 0x11 PUSH1 0x4 MSTORE PUSH1 0x24 PUSH1 0x0 REVERT JUMPDEST PUSH2 0xA78 DUP1 PUSH3 0x225 PUSH1 0x0 CODECOPY PUSH1 0x0 RETURN INVALID PUSH1 0x80 PUSH1 0x40 MSTORE CALLVALUE DUP1 ISZERO PUSH2 0x10 JUMPI PUSH1 0x0 DUP1 REVERT JUMPDEST POP PUSH1 0x4 CALLDATASIZE LT PUSH2 0xEA JUMPI PUSH1 0x0 CALLDATALOAD PUSH1 0xE0 SHR DUP1 PUSH4 0x4F8EDDB2 GT PUSH2 0x8C JUMPI DUP1 PUSH4 0xA457C2D7 GT PUSH2 0x66 JUMPI DUP1 PUSH4 0xA457C2D7 EQ PUSH2 0x205 JUMPI DUP1 PUSH4 0xA9059CBB EQ PUSH2 0x218 JUMPI DUP1 PUSH4 0xA9321573 EQ PUSH2 0x22B JUMPI DUP1 PUSH4 0xDD62ED3E EQ PUSH2 0x262 JUMPI PUSH2 0xEA JUMP JUMPDEST DUP1 PUSH4 0x4F8EDDB2 EQ PUSH2 0x1AC JUMPI DUP1 PUSH4 0x70A08231 EQ PUSH2 0x1CF JUMPI DUP1 PUSH4 0x95D89B41 EQ PUSH2 0x1E2 JUMPI PUSH2 0xEA JUMP JUMPDEST DUP1 PUSH4 0x18160DDD GT PUSH2 0xC8 JUMPI DUP1 PUSH4 0x18160DDD EQ PUSH2 0x164 JUMPI DUP1 PUSH4 0x23B872DD EQ PUSH2 0x16C JUMPI DUP1 PUSH4 0x313CE567 EQ PUSH2 0x17F JUMPI DUP1 PUSH4 0x39509351 EQ PUSH2 0x199 JUMPI PUSH2 0xEA JUMP JUMPDEST DUP1 PUSH4 0x6FDDE03 EQ PUSH2 0xEF JUMPI DUP1 PUSH4 0x95EA7B3 EQ PUSH2 0x12A JUMPI DUP1 PUSH4 0x13114A9D EQ PUSH2 0x14D JUMPI JUMPDEST PUSH1 0x0 DUP1 REVERT JUMPDEST PUSH2 0x114 PUSH1 0x40 MLOAD DUP1 PUSH1 0x40 ADD PUSH1 0x40 MSTORE DUP1 PUSH1 0x6 DUP2 MSTORE PUSH1 0x20 ADD PUSH6 0x2B32BA3432B9 PUSH1 0xD1 SHL DUP2 MSTORE POP DUP2 JUMP JUMPDEST PUSH1 0x40 MLOAD PUSH2 0x121 SWAP2 SWAP1 PUSH2 0x854 JUMP JUMPDEST PUSH1 0x40 MLOAD DUP1 SWAP2 SUB SWAP1 RETURN JUMPDEST PUSH2 0x13D PUSH2 0x138 CALLDATASIZE PUSH1 0x4 PUSH2 0x82B JUMP JUMPDEST PUSH2 0x29B JUMP JUMPDEST PUSH1 0x40 MLOAD SWAP1 ISZERO ISZERO DUP2 MSTORE PUSH1 0x20 ADD PUSH2 0x121 JUMP JUMPDEST PUSH2 0x156 PUSH1 0x0 SLOAD DUP2 JUMP JUMPDEST PUSH1 0x40 MLOAD SWAP1 DUP2 MSTORE PUSH1 0x20 ADD PUSH2 0x121 JUMP JUMPDEST PUSH2 0x156 PUSH2 0x2B1 JUMP JUMPDEST PUSH2 0x13D PUSH2 0x17A CALLDATASIZE PUSH1 0x4 PUSH2 0x7F0 JUMP JUMPDEST PUSH2 0x2CD JUMP JUMPDEST PUSH2 0x187 PUSH1 0x12 DUP2 JUMP JUMPDEST PUSH1 0x40 MLOAD PUSH1 0xFF SWAP1 SWAP2 AND DUP2 MSTORE PUSH1 0x20 ADD PUSH2 0x121 JUMP JUMPDEST PUSH2 0x13D PUSH2 0x1A7 CALLDATASIZE PUSH1 0x4 PUSH2 0x82B JUMP JUMPDEST PUSH2 0x34D JUMP JUMPDEST PUSH2 0x13D PUSH2 0x1BA CALLDATASIZE PUSH1 0x4 PUSH2 0x7A4 JUMP JUMPDEST PUSH1 0x1 PUSH1 0x20 MSTORE PUSH1 0x0 SWAP1 DUP2 MSTORE PUSH1 0x40 SWAP1 KECCAK256 SLOAD PUSH1 0xFF AND DUP2 JUMP JUMPDEST PUSH2 0x156 PUSH2 0x1DD CALLDATASIZE PUSH1 0x4 PUSH2 0x7A4 JUMP JUMPDEST PUSH2 0x384 JUMP JUMPDEST PUSH2 0x114 PUSH1 0x40 MLOAD DUP1 PUSH1 0x40 ADD PUSH1 0x40 MSTORE DUP1 PUSH1 0x4 DUP2 MSTORE PUSH1 0x20 ADD PUSH4 0xAC8AA89 PUSH1 0xE3 SHL DUP2 MSTORE POP DUP2 JUMP JUMPDEST PUSH2 0x13D PUSH2 0x213 CALLDATASIZE PUSH1 0x4 PUSH2 0x82B JUMP JUMPDEST PUSH2 0x3A3 JUMP JUMPDEST PUSH2 0x13D PUSH2 0x226 CALLDATASIZE PUSH1 0x4 PUSH2 0x82B JUMP JUMPDEST PUSH2 0x3DA JUMP JUMPDEST PUSH2 0x260 PUSH2 0x239 CALLDATASIZE PUSH1 0x4 PUSH2 0x7A4 JUMP JUMPDEST PUSH1 0x1 PUSH1 0x1 PUSH1 0xA0 SHL SUB AND PUSH1 0x0 SWAP1 DUP2 MSTORE PUSH1 0x1 PUSH1 0x20 DUP2 SWAP1 MSTORE PUSH1 0x40 SWAP1 SWAP2 KECCAK256 DUP1 SLOAD PUSH1 0xFF NOT AND SWAP1 SWAP2 OR SWAP1 SSTORE JUMP JUMPDEST STOP JUMPDEST PUSH2 0x156 PUSH2 0x270 CALLDATASIZE PUSH1 0x4 PUSH2 0x7BE JUMP JUMPDEST PUSH1 0x1 PUSH1 0x1 PUSH1 0xA0 SHL SUB SWAP2 DUP3 AND PUSH1 0x0 SWAP1 DUP2 MSTORE PUSH1 0x3 PUSH1 0x20 SWAP1 DUP2 MSTORE PUSH1 0x40 DUP1 DUP4 KECCAK256 SWAP4 SWAP1 SWAP5 AND DUP3 MSTORE SWAP2 SWAP1 SWAP2 MSTORE KECCAK256 SLOAD SWAP1 JUMP JUMPDEST PUSH1 0x0 PUSH2 0x2A8 CALLER DUP5 DUP5 PUSH2 0x3E7 JUMP JUMPDEST POP PUSH1 0x1 SWAP3 SWAP2 POP POP JUMP JUMPDEST PUSH2 0x2BD PUSH1 0x12 PUSH1 0xA PUSH2 0x925 JUMP JUMPDEST PUSH2 0x2CA SWAP1 PUSH3 0xF4240 PUSH2 0x9F6 JUMP JUMPDEST DUP2 JUMP JUMPDEST PUSH1 0x0 PUSH2 0x2DA DUP5 DUP5 DUP5 PUSH2 0x513 JUMP JUMPDEST PUSH1 0x1 PUSH1 0x1 PUSH1 0xA0 SHL SUB DUP5 AND PUSH1 0x0 SWAP1 DUP2 MSTORE PUSH1 0x3 PUSH1 0x20 SWAP1 DUP2 MSTORE PUSH1 0x40 DUP1 DUP4 KECCAK256 CALLER DUP5 MSTORE SWAP1 SWAP2 MSTORE SWAP1 KECCAK256 SLOAD PUSH1 0x0 NOT GT ISZERO PUSH2 0x342 JUMPI PUSH1 0x1 PUSH1 0x1 PUSH1 0xA0 SHL SUB DUP5 AND PUSH1 0x0 SWAP1 DUP2 MSTORE PUSH1 0x3 PUSH1 0x20 SWAP1 DUP2 MSTORE PUSH1 0x40 DUP1 DUP4 KECCAK256 CALLER DUP1 DUP6 MSTORE SWAP3 MSTORE SWAP1 SWAP2 KECCAK256 SLOAD PUSH2 0x342 SWAP2 DUP7 SWAP2 PUSH2 0x33D SWAP1 DUP7 SWAP1 PUSH2 0xA15 JUMP JUMPDEST PUSH2 0x3E7 JUMP JUMPDEST POP PUSH1 0x1 JUMPDEST SWAP4 SWAP3 POP POP POP JUMP JUMPDEST CALLER PUSH1 0x0 DUP2 DUP2 MSTORE PUSH1 0x3 PUSH1 0x20 SWAP1 DUP2 MSTORE PUSH1 0x40 DUP1 DUP4 KECCAK256 PUSH1 0x1 PUSH1 0x1 PUSH1 0xA0 SHL SUB DUP8 AND DUP5 MSTORE SWAP1 SWAP2 MSTORE DUP2 KECCAK256 SLOAD SWAP1 SWAP2 PUSH2 0x2A8 SWAP2 DUP6 SWAP1 PUSH2 0x33D SWAP1 DUP7 SWAP1 PUSH2 0x8A7 JUMP JUMPDEST PUSH1 0x1 PUSH1 0x1 PUSH1 0xA0 SHL SUB DUP2 AND PUSH1 0x0 SWAP1 DUP2 MSTORE PUSH1 0x2 PUSH1 0x20 MSTORE PUSH1 0x40 SWAP1 KECCAK256 SLOAD JUMPDEST SWAP2 SWAP1 POP JUMP JUMPDEST CALLER PUSH1 0x0 DUP2 DUP2 MSTORE PUSH1 0x3 PUSH1 0x20 SWAP1 DUP2 MSTORE PUSH1 0x40 DUP1 DUP4 KECCAK256 PUSH1 0x1 PUSH1 0x1 PUSH1 0xA0 SHL SUB DUP8 AND DUP5 MSTORE SWAP1 SWAP2 MSTORE DUP2 KECCAK256 SLOAD SWAP1 SWAP2 PUSH2 0x2A8 SWAP2 DUP6 SWAP1 PUSH2 0x33D SWAP1 DUP7 SWAP1 PUSH2 0xA15 JUMP JUMPDEST PUSH1 0x0 PUSH2 0x2A8 CALLER DUP5 DUP5 PUSH2 0x513 JUMP JUMPDEST PUSH1 0x1 PUSH1 0x1 PUSH1 0xA0 SHL SUB DUP4 AND PUSH2 0x450 JUMPI PUSH1 0x40 MLOAD PUSH3 0x461BCD PUSH1 0xE5 SHL DUP2 MSTORE PUSH1 0x20 PUSH1 0x4 DUP3 ADD MSTORE PUSH1 0x25 PUSH1 0x24 DUP3 ADD MSTORE PUSH32 0x6945524332303A20617070726F76652066726F6D20746865207A65726F206164 PUSH1 0x44 DUP3 ADD MSTORE PUSH5 0x6472657373 PUSH1 0xD8 SHL PUSH1 0x64 DUP3 ADD MSTORE PUSH1 0x84 ADD JUMPDEST PUSH1 0x40 MLOAD DUP1 SWAP2 SUB SWAP1 REVERT JUMPDEST PUSH1 0x1 PUSH1 0x1 PUSH1 0xA0 SHL SUB DUP3 AND PUSH2 0x4B2 JUMPI PUSH1 0x40 MLOAD PUSH3 0x461BCD PUSH1 0xE5 SHL DUP2 MSTORE PUSH1 0x20 PUSH1 0x4 DUP3 ADD MSTORE PUSH1 0x23 PUSH1 0x24 DUP3 ADD MSTORE PUSH32 0x6945524332303A20617070726F766520746F20746865207A65726F2061646472 PUSH1 0x44 DUP3 ADD MSTORE PUSH3 0x657373 PUSH1 0xE8 SHL PUSH1 0x64 DUP3 ADD MSTORE PUSH1 0x84 ADD PUSH2 0x447 JUMP JUMPDEST PUSH1 0x1 PUSH1 0x1 PUSH1 0xA0 SHL SUB DUP4 DUP2 AND PUSH1 0x0 DUP2 DUP2 MSTORE PUSH1 0x3 PUSH1 0x20 SWAP1 DUP2 MSTORE PUSH1 0x40 DUP1 DUP4 KECCAK256 SWAP5 DUP8 AND DUP1 DUP5 MSTORE SWAP5 DUP3 MSTORE SWAP2 DUP3 SWAP1 KECCAK256 DUP6 SWAP1 SSTORE SWAP1 MLOAD DUP5 DUP2 MSTORE PUSH32 0x8C5BE1E5EBEC7D5BD14F71427D1E84F3DD0314C0F7B2291E5B200AC8C7C3B925 SWAP2 ADD PUSH1 0x40 MLOAD DUP1 SWAP2 SUB SWAP1 LOG3 POP POP POP JUMP JUMPDEST PUSH1 0x1 PUSH1 0x1 PUSH1 0xA0 SHL SUB DUP4 AND PUSH1 0x0 SWAP1 DUP2 MSTORE PUSH1 0x2 PUSH1 0x20 MSTORE PUSH1 0x40 SWAP1 KECCAK256 SLOAD DUP2 GT ISZERO PUSH2 0x57B JUMPI PUSH1 0x40 MLOAD PUSH3 0x461BCD PUSH1 0xE5 SHL DUP2 MSTORE PUSH1 0x20 PUSH1 0x4 DUP3 ADD MSTORE PUSH1 0x1F PUSH1 0x24 DUP3 ADD MSTORE PUSH32 0x4D757374206E6F742073656E64206D6F7265207468616E2062616C616E636500 PUSH1 0x44 DUP3 ADD MSTORE PUSH1 0x64 ADD PUSH2 0x447 JUMP JUMPDEST PUSH1 0x1 PUSH1 0x1 PUSH1 0xA0 SHL SUB DUP3 AND PUSH1 0x0 SWAP1 DUP2 MSTORE PUSH1 0x2 PUSH1 0x20 MSTORE PUSH1 0x40 SWAP1 KECCAK256 SLOAD PUSH2 0x59E DUP3 DUP3 PUSH2 0x8A7 JUMP JUMPDEST LT ISZERO PUSH2 0x5DF JUMPI PUSH1 0x40 MLOAD PUSH3 0x461BCD PUSH1 0xE5 SHL DUP2 MSTORE PUSH1 0x20 PUSH1 0x4 DUP3 ADD MSTORE PUSH1 0x10 PUSH1 0x24 DUP3 ADD MSTORE PUSH16 0x42616C616E6365206F766572666C6F77 PUSH1 0x80 SHL PUSH1 0x44 DUP3 ADD MSTORE PUSH1 0x64 ADD PUSH2 0x447 JUMP JUMPDEST PUSH1 0x1 PUSH1 0x1 PUSH1 0xA0 SHL SUB DUP4 AND PUSH1 0x0 SWAP1 DUP2 MSTORE PUSH1 0x2 PUSH1 0x20 MSTORE PUSH1 0x40 DUP2 KECCAK256 DUP1 SLOAD DUP4 SWAP3 SWAP1 PUSH2 0x607 SWAP1 DUP5 SWAP1 PUSH2 0xA15 JUMP JUMPDEST SWAP1 SWAP2 SSTORE POP PUSH1 0x0 SWAP1 POP PUSH2 0x61A DUP5 DUP5 DUP5 PUSH2 0x72D JUMP JUMPDEST SWAP1 POP PUSH2 0x626 DUP2 DUP4 PUSH2 0xA15 JUMP JUMPDEST PUSH1 0x1 PUSH1 0x1 PUSH1 0xA0 SHL SUB DUP5 AND PUSH1 0x0 SWAP1 DUP2 MSTORE PUSH1 0x2 PUSH1 0x20 MSTORE PUSH1 0x40 DUP2 KECCAK256 DUP1 SLOAD SWAP1 SWAP2 SWAP1 PUSH2 0x64E SWAP1 DUP5 SWAP1 PUSH2 0x8A7 JUMP JUMPDEST SWAP1 SWAP2 SSTORE POP POP DUP1 ISZERO PUSH2 0x696 JUMPI ADDRESS PUSH1 0x0 SWAP1 DUP2 MSTORE PUSH1 0x2 PUSH1 0x20 MSTORE PUSH1 0x40 DUP2 KECCAK256 DUP1 SLOAD DUP4 SWAP3 SWAP1 PUSH2 0x678 SWAP1 DUP5 SWAP1 PUSH2 0x8A7 JUMP JUMPDEST SWAP3 POP POP DUP2 SWAP1 SSTORE POP DUP1 PUSH1 0x0 DUP1 DUP3 DUP3 SLOAD PUSH2 0x690 SWAP2 SWAP1 PUSH2 0x8A7 JUMP JUMPDEST SWAP1 SWAP2 SSTORE POP POP JUMPDEST PUSH1 0x1 PUSH1 0x1 PUSH1 0xA0 SHL SUB DUP1 DUP5 AND SWAP1 DUP6 AND PUSH32 0xDDF252AD1BE2C89B69C2B068FC378DAA952BA7F163C4A11628F55A4DF523B3EF PUSH2 0x6CF DUP5 DUP7 PUSH2 0xA15 JUMP JUMPDEST PUSH1 0x40 MLOAD SWAP1 DUP2 MSTORE PUSH1 0x20 ADD PUSH1 0x40 MLOAD DUP1 SWAP2 SUB SWAP1 LOG3 DUP1 ISZERO PUSH2 0x727 JUMPI PUSH1 0x40 MLOAD DUP2 DUP2 MSTORE ADDRESS SWAP1 PUSH1 0x1 PUSH1 0x1 PUSH1 0xA0 SHL SUB DUP7 AND SWAP1 PUSH32 0xDDF252AD1BE2C89B69C2B068FC378DAA952BA7F163C4A11628F55A4DF523B3EF SWAP1 PUSH1 0x20 ADD PUSH1 0x40 MLOAD DUP1 SWAP2 SUB SWAP1 LOG3 JUMPDEST POP POP POP POP JUMP JUMPDEST PUSH1 0x1 PUSH1 0x1 PUSH1 0xA0 SHL SUB DUP4 AND PUSH1 0x0 SWAP1 DUP2 MSTORE PUSH1 0x1 PUSH1 0x20 MSTORE PUSH1 0x40 DUP2 KECCAK256 SLOAD PUSH1 0xFF AND DUP1 PUSH2 0x76C JUMPI POP PUSH1 0x1 PUSH1 0x1 PUSH1 0xA0 SHL SUB DUP4 AND PUSH1 0x0 SWAP1 DUP2 MSTORE PUSH1 0x1 PUSH1 0x20 MSTORE PUSH1 0x40 SWAP1 KECCAK256 SLOAD PUSH1 0xFF AND JUMPDEST ISZERO PUSH2 0x779 JUMPI POP PUSH1 0x0 PUSH2 0x346 JUMP JUMPDEST PUSH2 0x785 PUSH2 0x3E8 DUP4 PUSH2 0x8BF JUMP JUMPDEST SWAP5 SWAP4 POP POP POP POP JUMP JUMPDEST DUP1 CALLDATALOAD PUSH1 0x1 PUSH1 0x1 PUSH1 0xA0 SHL SUB DUP2 AND DUP2 EQ PUSH2 0x39E JUMPI PUSH1 0x0 DUP1 REVERT JUMPDEST PUSH1 0x0 PUSH1 0x20 DUP3 DUP5 SUB SLT ISZERO PUSH2 0x7B5 JUMPI DUP1 DUP2 REVERT JUMPDEST PUSH2 0x346 DUP3 PUSH2 0x78D JUMP JUMPDEST PUSH1 0x0 DUP1 PUSH1 0x40 DUP4 DUP6 SUB SLT ISZERO PUSH2 0x7D0 JUMPI DUP1 DUP2 REVERT JUMPDEST PUSH2 0x7D9 DUP4 PUSH2 0x78D JUMP JUMPDEST SWAP2 POP PUSH2 0x7E7 PUSH1 0x20 DUP5 ADD PUSH2 0x78D JUMP JUMPDEST SWAP1 POP SWAP3 POP SWAP3 SWAP1 POP JUMP JUMPDEST PUSH1 0x0 DUP1 PUSH1 0x0 PUSH1 0x60 DUP5 DUP7 SUB SLT ISZERO PUSH2 0x804 JUMPI DUP1 DUP2 REVERT JUMPDEST PUSH2 0x80D DUP5 PUSH2 0x78D JUMP JUMPDEST SWAP3 POP PUSH2 0x81B PUSH1 0x20 DUP6 ADD PUSH2 0x78D JUMP JUMPDEST SWAP2 POP PUSH1 0x40 DUP5 ADD CALLDATALOAD SWAP1 POP SWAP3 POP SWAP3 POP SWAP3 JUMP JUMPDEST PUSH1 0x0 DUP1 PUSH1 0x40 DUP4 DUP6 SUB SLT ISZERO PUSH2 0x83D JUMPI DUP2 DUP3 REVERT JUMPDEST PUSH2 0x846 DUP4 PUSH2 0x78D JUMP JUMPDEST SWAP5 PUSH1 0x20 SWAP4 SWAP1 SWAP4 ADD CALLDATALOAD SWAP4 POP POP POP JUMP JUMPDEST PUSH1 0x0 PUSH1 0x20 DUP1 DUP4 MSTORE DUP4 MLOAD DUP1 DUP3 DUP6 ADD MSTORE DUP3 JUMPDEST DUP2 DUP2 LT ISZERO PUSH2 0x880 JUMPI DUP6 DUP2 ADD DUP4 ADD MLOAD DUP6 DUP3 ADD PUSH1 0x40 ADD MSTORE DUP3 ADD PUSH2 0x864 JUMP JUMPDEST DUP2 DUP2 GT ISZERO PUSH2 0x891 JUMPI DUP4 PUSH1 0x40 DUP4 DUP8 ADD ADD MSTORE JUMPDEST POP PUSH1 0x1F ADD PUSH1 0x1F NOT AND SWAP3 SWAP1 SWAP3 ADD PUSH1 0x40 ADD SWAP4 SWAP3 POP POP POP JUMP JUMPDEST PUSH1 0x0 DUP3 NOT DUP3 GT ISZERO PUSH2 0x8BA JUMPI PUSH2 0x8BA PUSH2 0xA2C JUMP JUMPDEST POP ADD SWAP1 JUMP JUMPDEST PUSH1 0x0 DUP3 PUSH2 0x8DA JUMPI PUSH4 0x4E487B71 PUSH1 0xE0 SHL DUP2 MSTORE PUSH1 0x12 PUSH1 0x4 MSTORE PUSH1 0x24 DUP2 REVERT JUMPDEST POP DIV SWAP1 JUMP JUMPDEST DUP1 DUP3 JUMPDEST PUSH1 0x1 DUP1 DUP7 GT PUSH2 0x8F1 JUMPI POP PUSH2 0x91C JUMP JUMPDEST DUP2 DUP8 DIV DUP3 GT ISZERO PUSH2 0x903 JUMPI PUSH2 0x903 PUSH2 0xA2C JUMP JUMPDEST DUP1 DUP7 AND ISZERO PUSH2 0x910 JUMPI SWAP2 DUP2 MUL SWAP2 JUMPDEST SWAP5 SWAP1 SWAP5 SHR SWAP4 DUP1 MUL PUSH2 0x8E2 JUMP JUMPDEST SWAP5 POP SWAP5 SWAP3 POP POP POP JUMP JUMPDEST PUSH1 0x0 PUSH2 0x346 PUSH1 0x0 NOT PUSH1 0xFF DUP6 AND DUP5 PUSH1 0x0 DUP3 PUSH2 0x941 JUMPI POP PUSH1 0x1 PUSH2 0x346 JUMP JUMPDEST DUP2 PUSH2 0x94E JUMPI POP PUSH1 0x0 PUSH2 0x346 JUMP JUMPDEST DUP2 PUSH1 0x1 DUP2 EQ PUSH2 0x964 JUMPI PUSH1 0x2 DUP2 EQ PUSH2 0x96E JUMPI PUSH2 0x99B JUMP JUMPDEST PUSH1 0x1 SWAP2 POP POP PUSH2 0x346 JUMP JUMPDEST PUSH1 0xFF DUP5 GT ISZERO PUSH2 0x97F JUMPI PUSH2 0x97F PUSH2 0xA2C JUMP JUMPDEST PUSH1 0x1 DUP5 SHL SWAP2 POP DUP5 DUP3 GT ISZERO PUSH2 0x995 JUMPI PUSH2 0x995 PUSH2 0xA2C JUMP JUMPDEST POP PUSH2 0x346 JUMP JUMPDEST POP PUSH1 0x20 DUP4 LT PUSH2 0x133 DUP4 LT AND PUSH1 0x4E DUP5 LT PUSH1 0xB DUP5 LT AND OR ISZERO PUSH2 0x9CE JUMPI POP DUP2 DUP2 EXP DUP4 DUP2 GT ISZERO PUSH2 0x9C9 JUMPI PUSH2 0x9C9 PUSH2 0xA2C JUMP JUMPDEST PUSH2 0x346 JUMP JUMPDEST PUSH2 0x9DB DUP5 DUP5 DUP5 PUSH1 0x1 PUSH2 0x8DF JUMP JUMPDEST DUP1 DUP7 DIV DUP3 GT ISZERO PUSH2 0x9ED JUMPI PUSH2 0x9ED PUSH2 0xA2C JUMP JUMPDEST MUL SWAP5 SWAP4 POP POP POP POP JUMP JUMPDEST PUSH1 0x0 DUP2 PUSH1 0x0 NOT DIV DUP4 GT DUP3 ISZERO ISZERO AND ISZERO PUSH2 0xA10 JUMPI PUSH2 0xA10 PUSH2 0xA2C JUMP JUMPDEST POP MUL SWAP1 JUMP JUMPDEST PUSH1 0x0 DUP3 DUP3 LT ISZERO PUSH2 0xA27 JUMPI PUSH2 0xA27 PUSH2 0xA2C JUMP JUMPDEST POP SUB SWAP1 JUMP JUMPDEST PUSH4 0x4E487B71 PUSH1 0xE0 SHL PUSH1 0x0 MSTORE PUSH1 0x11 PUSH1 0x4 MSTORE PUSH1 0x24 PUSH1 0x0 REVERT INVALID LOG2 PUSH5 0x6970667358 0x22 SLT KECCAK256 CODECOPY PUSH11 0x852CB8158D5EF48493CB0A DUP6 0x49 0xC6 MOD PUSH23 0x157CF118AD8BA798990E00AA6C7C64736F6C6343000803 STOP CALLER "
        },
        "methodIdentifiers": {
          "addExcluded(address)": "a9321573",
          "allowance(address,address)": "dd62ed3e",
          "approve(address,uint256)": "095ea7b3",
          "balanceOf(address)": "70a08231",
          "decimals()": "313ce567",
          "decreaseAllowance(address,uint256)": "a457c2d7",
          "increaseAllowance(address,uint256)": "39509351",
          "mapAddress_Excluded(address)": "4f8eddb2",
          "name()": "06fdde03",
          "symbol()": "95d89b41",
          "totalFees()": "13114a9d",
          "totalSupply()": "18160ddd",
          "transfer(address,uint256)": "a9059cbb",
          "transferFrom(address,address,uint256)": "23b872dd"
        }
      }
    }
  }
}